{
  "contractName": "Voting",
  "abi": [
    {
      "inputs": [],
      "payable": false,
      "stateMutability": "nonpayable",
      "type": "constructor"
    },
    {
      "constant": true,
      "inputs": [
        {
          "internalType": "uint256",
          "name": "",
          "type": "uint256"
        }
      ],
      "name": "candidates",
      "outputs": [
        {
          "internalType": "uint256",
          "name": "id",
          "type": "uint256"
        },
        {
          "internalType": "string",
          "name": "name",
          "type": "string"
        },
        {
          "internalType": "string",
          "name": "party",
          "type": "string"
        },
        {
          "internalType": "uint256",
          "name": "voteCount",
          "type": "uint256"
        }
      ],
      "payable": false,
      "stateMutability": "view",
      "type": "function"
    },
    {
      "constant": true,
      "inputs": [],
      "name": "candidatesCount",
      "outputs": [
        {
          "internalType": "uint256",
          "name": "",
          "type": "uint256"
        }
      ],
      "payable": false,
      "stateMutability": "view",
      "type": "function"
    },
    {
      "constant": true,
      "inputs": [],
      "name": "electionRound",
      "outputs": [
        {
          "internalType": "uint256",
          "name": "",
          "type": "uint256"
        }
      ],
      "payable": false,
      "stateMutability": "view",
      "type": "function"
    },
    {
      "constant": true,
      "inputs": [
        {
          "internalType": "bytes32",
          "name": "",
          "type": "bytes32"
        }
      ],
      "name": "voters",
      "outputs": [
        {
          "internalType": "bool",
          "name": "",
          "type": "bool"
        }
      ],
      "payable": false,
      "stateMutability": "view",
      "type": "function"
    },
    {
      "constant": true,
      "inputs": [],
      "name": "votingEnd",
      "outputs": [
        {
          "internalType": "uint256",
          "name": "",
          "type": "uint256"
        }
      ],
      "payable": false,
      "stateMutability": "view",
      "type": "function"
    },
    {
      "constant": true,
      "inputs": [],
      "name": "votingStart",
      "outputs": [
        {
          "internalType": "uint256",
          "name": "",
          "type": "uint256"
        }
      ],
      "payable": false,
      "stateMutability": "view",
      "type": "function"
    },
    {
      "constant": false,
      "inputs": [
        {
          "internalType": "string",
          "name": "name",
          "type": "string"
        },
        {
          "internalType": "string",
          "name": "party",
          "type": "string"
        }
      ],
      "name": "addCandidate",
      "outputs": [
        {
          "internalType": "uint256",
          "name": "",
          "type": "uint256"
        }
      ],
      "payable": false,
      "stateMutability": "nonpayable",
      "type": "function"
    },
    {
      "constant": false,
      "inputs": [
        {
          "internalType": "uint256",
          "name": "_candidateId",
          "type": "uint256"
        },
        {
          "internalType": "string",
          "name": "_userId",
          "type": "string"
        }
      ],
      "name": "vote",
      "outputs": [],
      "payable": false,
      "stateMutability": "nonpayable",
      "type": "function"
    },
    {
      "constant": true,
      "inputs": [
        {
          "internalType": "string",
          "name": "_userId",
          "type": "string"
        }
      ],
      "name": "checkVote",
      "outputs": [
        {
          "internalType": "bool",
          "name": "",
          "type": "bool"
        }
      ],
      "payable": false,
      "stateMutability": "view",
      "type": "function"
    },
    {
      "constant": false,
      "inputs": [],
      "name": "resetElection",
      "outputs": [],
      "payable": false,
      "stateMutability": "nonpayable",
      "type": "function"
    },
    {
      "constant": false,
      "inputs": [
        {
          "internalType": "uint256",
          "name": "_startDate",
          "type": "uint256"
        },
        {
          "internalType": "uint256",
          "name": "_endDate",
          "type": "uint256"
        }
      ],
      "name": "setDates",
      "outputs": [],
      "payable": false,
      "stateMutability": "nonpayable",
      "type": "function"
    },
    {
      "constant": true,
      "inputs": [],
      "name": "getDates",
      "outputs": [
        {
          "internalType": "uint256",
          "name": "",
          "type": "uint256"
        },
        {
          "internalType": "uint256",
          "name": "",
          "type": "uint256"
        }
      ],
      "payable": false,
      "stateMutability": "view",
      "type": "function"
    }
  ],
  "bytecode": "0x608060405234801561001057600080fd5b5060018081905550610c7e806100276000396000f3fe608060405234801561001057600080fd5b50600436106100b45760003560e01c806337f91f231161007157806337f91f231461046657806363694874146104ac57806385a38635146104ca578063974b89d5146104e8578063dedf141e146105bb578063e8f30523146105f3576100b4565b8063101158af146100b957806316441813146100d757806324108475146100fc57806326541b56146101c15780632d35a8a2146103275780633477ee2e14610345575b600080fd5b6100c16105fd565b6040518082815260200191505060405180910390f35b6100df610603565b604051808381526020018281526020019250505060405180910390f35b6101bf6004803603604081101561011257600080fd5b81019080803590602001909291908035906020019064010000000081111561013957600080fd5b82018360208201111561014b57600080fd5b8035906020019184600183028401116401000000008311171561016d57600080fd5b91908080601f016020809104026020016040519081016040528093929190818152602001838380828437600081840152601f19601f820116905080830192505050505050509192919290505050610614565b005b610311600480360360408110156101d757600080fd5b81019080803590602001906401000000008111156101f457600080fd5b82018360208201111561020657600080fd5b8035906020019184600183028401116401000000008311171561022857600080fd5b91908080601f016020809104026020016040519081016040528093929190818152602001838380828437600081840152601f19601f8201169050808301925050505050505091929192908035906020019064010000000081111561028b57600080fd5b82018360208201111561029d57600080fd5b803590602001918460018302840111640100000000831117156102bf57600080fd5b91908080601f016020809104026020016040519081016040528093929190818152602001838380828437600081840152601f19601f8201169050808301925050505050505091929192905050506107e6565b6040518082815260200191505060405180910390f35b61032f61088d565b6040518082815260200191505060405180910390f35b6103716004803603602081101561035b57600080fd5b8101908080359060200190929190505050610893565b604051808581526020018060200180602001848152602001838103835286818151815260200191508051906020019080838360005b838110156103c15780820151818401526020810190506103a6565b50505050905090810190601f1680156103ee5780820380516001836020036101000a031916815260200191505b50838103825285818151815260200191508051906020019080838360005b8381101561042757808201518184015260208101905061040c565b50505050905090810190601f1680156104545780820380516001836020036101000a031916815260200191505b50965050505050505060405180910390f35b6104926004803603602081101561047c57600080fd5b81019080803590602001909291905050506109f3565b604051808215151515815260200191505060405180910390f35b6104b4610a13565b6040518082815260200191505060405180910390f35b6104d2610a19565b6040518082815260200191505060405180910390f35b6105a1600480360360208110156104fe57600080fd5b810190808035906020019064010000000081111561051b57600080fd5b82018360208201111561052d57600080fd5b8035906020019184600183028401116401000000008311171561054f57600080fd5b91908080601f016020809104026020016040519081016040528093929190818152602001838380828437600081840152601f19601f820116905080830192505050505050509192919290505050610a1f565b604051808215151515815260200191505060405180910390f35b6105f1600480360360408110156105d157600080fd5b810190808035906020019092919080359060200190929190505050610ac9565b005b6105fb610b33565b005b60055481565b600080600554600454915091509091565b6000816001546040516020018083805190602001908083835b60208310610650578051825260208201915060208101905060208303925061062d565b6001836020036101000a038019825116818451168082178552505050505050905001828152602001925050506040516020818303038152906040528051906020012090506003600082815260200190815260200160002060009054906101000a900460ff161561070b576040517f08c379a0000000000000000000000000000000000000000000000000000000008152600401808060200182810382526025815260200180610c256025913960400191505060405180910390fd5b60008311801561071d57506000548311155b61078f576040517f08c379a00000000000000000000000000000000000000000000000000000000081526004018080602001828103825260128152602001807f496e76616c69642063616e6469646174652e000000000000000000000000000081525060200191505060405180910390fd5b60016003600083815260200190815260200160002060006101000a81548160ff0219169083151502179055506002600084815260200190815260200160002060030160008154809291906001019190505550505050565b600080600081548092919060010191905055506040518060800160405280600054815260200184815260200183815260200160008152506002600080548152602001908152602001600020600082015181600001556020820151816001019080519060200190610857929190610b5e565b506040820151816002019080519060200190610874929190610b5e565b5060608201518160030155905050600054905092915050565b60005481565b6002602052806000526040600020600091509050806000015490806001018054600181600116156101000203166002900480601f0160208091040260200160405190810160405280929190818152602001828054600181600116156101000203166002900480156109455780601f1061091a57610100808354040283529160200191610945565b820191906000526020600020905b81548152906001019060200180831161092857829003601f168201915b505050505090806002018054600181600116156101000203166002900480601f0160208091040260200160405190810160405280929190818152602001828054600181600116156101000203166002900480156109e35780601f106109b8576101008083540402835291602001916109e3565b820191906000526020600020905b8154815290600101906020018083116109c657829003601f168201915b5050505050908060030154905084565b60036020528060005260406000206000915054906101000a900460ff1681565b60015481565b60045481565b600080826001546040516020018083805190602001908083835b60208310610a5c5780518252602082019150602081019050602083039250610a39565b6001836020036101000a038019825116818451168082178552505050505050905001828152602001925050506040516020818303038152906040528051906020012090506003600082815260200190815260200160002060009054906101000a900460ff16915050919050565b818111610b21576040517f08c379a0000000000000000000000000000000000000000000000000000000008152600401808060200182810382526021815260200180610c046021913960400191505060405180910390fd5b80600481905550816005819055505050565b6001600081548092919060010191905055506000808190555060006005819055506000600481905550565b828054600181600116156101000203166002900490600052602060002090601f016020900481019282601f10610b9f57805160ff1916838001178555610bcd565b82800160010185558215610bcd579182015b82811115610bcc578251825591602001919060010190610bb1565b5b509050610bda9190610bde565b5090565b610c0091905b80821115610bfc576000816000905550600101610be4565b5090565b9056fe456e642064617465206d7573742062652061667465722073746172742064617465557365722068617320616c726561647920766f74656420696e207468697320726f756e642ea265627a7a72315820a349f8bdaf8fb5e510256473a8e34e0fde47a7c712a5c7024655ef19289a6bd864736f6c63430005100032",
  "source": "pragma solidity ^0.5.15;\r\n\r\ncontract Voting {\r\n    struct Candidate {\r\n        uint id;\r\n        string name;\r\n        string party; \r\n        uint voteCount;\r\n    }\r\n\r\n    uint public candidatesCount;\r\n    uint public electionRound; // Tracks current election session\r\n\r\n    mapping (uint => Candidate) public candidates;\r\n    // Maps a hash of (UserId + ElectionRound) to boolean\r\n    mapping (bytes32 => bool) public voters;\r\n\r\n    uint256 public votingEnd;\r\n    uint256 public votingStart;\r\n\r\n    constructor() public {\r\n        electionRound = 1; \r\n    }\r\n\r\n    function addCandidate(string memory name, string memory party) public returns(uint) {\r\n        candidatesCount++;\r\n        candidates[candidatesCount] = Candidate(candidatesCount, name, party, 0);\r\n        return candidatesCount;\r\n    }\r\n\r\n    function vote(uint _candidateId, string memory _userId) public {\r\n        // Unique hash per user per round\r\n        bytes32 userHash = keccak256(abi.encodePacked(_userId, electionRound));\r\n        require(!voters[userHash], \"User has already voted in this round.\");\r\n        require(_candidateId > 0 && _candidateId <= candidatesCount, \"Invalid candidate.\");\r\n\r\n        voters[userHash] = true;\r\n        candidates[_candidateId].voteCount++;\r\n    }\r\n    \r\n    function checkVote(string memory _userId) public view returns (bool) {\r\n        bytes32 userHash = keccak256(abi.encodePacked(_userId, electionRound));\r\n        return voters[userHash];\r\n    }\r\n\r\n    function resetElection() public {\r\n        electionRound++; // Incrementing this makes all previous voter hashes \"false\"\r\n        candidatesCount = 0;\r\n        votingStart = 0;\r\n        votingEnd = 0;\r\n    }\r\n\r\n    function setDates(uint256 _startDate, uint256 _endDate) public {\r\n        require(_endDate > _startDate, \"End date must be after start date\");\r\n        votingEnd = _endDate;\r\n        votingStart = _startDate;\r\n    }\r\n\r\n    function getDates() public view returns (uint256, uint256) {\r\n        return (votingStart, votingEnd);\r\n    }\r\n}",
  "sourcePath": "C:\\Users\\ASUS\\OneDrive\\Desktop\\mini project\\next_dvoting\\contracts\\Voting.sol",
  "compiler": {
    "name": "solc",
    "version": "0.5.16+commit.9c3226ce.Emscripten.clang"
  },
  "schemaVersion": "3.4.16",
  "updatedAt": "2026-02-01T14:44:43.715Z",
  "networkType": "ethereum",
  "devdoc": {
    "methods": {}
  },
  "userdoc": {
    "methods": {}
  }
}