{
  "contractName": "Voting",
  "abi": [
    {
      "constant": true,
      "inputs": [
        {
          "internalType": "uint256",
          "name": "",
          "type": "uint256"
        }
      ],
      "name": "candidates",
      "outputs": [
        {
          "internalType": "uint256",
          "name": "id",
          "type": "uint256"
        },
        {
          "internalType": "string",
          "name": "name",
          "type": "string"
        },
        {
          "internalType": "string",
          "name": "party",
          "type": "string"
        },
        {
          "internalType": "uint256",
          "name": "voteCount",
          "type": "uint256"
        }
      ],
      "payable": false,
      "stateMutability": "view",
      "type": "function"
    },
    {
      "constant": true,
      "inputs": [],
      "name": "candidatesCount",
      "outputs": [
        {
          "internalType": "uint256",
          "name": "",
          "type": "uint256"
        }
      ],
      "payable": false,
      "stateMutability": "view",
      "type": "function"
    },
    {
      "constant": true,
      "inputs": [],
      "name": "countCandidates",
      "outputs": [
        {
          "internalType": "uint256",
          "name": "",
          "type": "uint256"
        }
      ],
      "payable": false,
      "stateMutability": "view",
      "type": "function"
    },
    {
      "constant": true,
      "inputs": [
        {
          "internalType": "bytes32",
          "name": "",
          "type": "bytes32"
        }
      ],
      "name": "voters",
      "outputs": [
        {
          "internalType": "bool",
          "name": "",
          "type": "bool"
        }
      ],
      "payable": false,
      "stateMutability": "view",
      "type": "function"
    },
    {
      "constant": true,
      "inputs": [],
      "name": "votingEnd",
      "outputs": [
        {
          "internalType": "uint256",
          "name": "",
          "type": "uint256"
        }
      ],
      "payable": false,
      "stateMutability": "view",
      "type": "function"
    },
    {
      "constant": true,
      "inputs": [],
      "name": "votingStart",
      "outputs": [
        {
          "internalType": "uint256",
          "name": "",
          "type": "uint256"
        }
      ],
      "payable": false,
      "stateMutability": "view",
      "type": "function"
    },
    {
      "constant": false,
      "inputs": [
        {
          "internalType": "string",
          "name": "name",
          "type": "string"
        },
        {
          "internalType": "string",
          "name": "party",
          "type": "string"
        }
      ],
      "name": "addCandidate",
      "outputs": [
        {
          "internalType": "uint256",
          "name": "",
          "type": "uint256"
        }
      ],
      "payable": false,
      "stateMutability": "nonpayable",
      "type": "function"
    },
    {
      "constant": true,
      "inputs": [
        {
          "internalType": "string",
          "name": "_userId",
          "type": "string"
        }
      ],
      "name": "hasUserVoted",
      "outputs": [
        {
          "internalType": "bool",
          "name": "",
          "type": "bool"
        }
      ],
      "payable": false,
      "stateMutability": "view",
      "type": "function"
    },
    {
      "constant": false,
      "inputs": [
        {
          "internalType": "uint256",
          "name": "_candidateId",
          "type": "uint256"
        },
        {
          "internalType": "string",
          "name": "_userId",
          "type": "string"
        }
      ],
      "name": "vote",
      "outputs": [],
      "payable": false,
      "stateMutability": "nonpayable",
      "type": "function"
    },
    {
      "constant": true,
      "inputs": [
        {
          "internalType": "string",
          "name": "_userId",
          "type": "string"
        }
      ],
      "name": "checkVote",
      "outputs": [
        {
          "internalType": "bool",
          "name": "",
          "type": "bool"
        }
      ],
      "payable": false,
      "stateMutability": "view",
      "type": "function"
    },
    {
      "constant": true,
      "inputs": [],
      "name": "getCountCandidates",
      "outputs": [
        {
          "internalType": "uint256",
          "name": "",
          "type": "uint256"
        }
      ],
      "payable": false,
      "stateMutability": "view",
      "type": "function"
    },
    {
      "constant": true,
      "inputs": [
        {
          "internalType": "uint256",
          "name": "candidateID",
          "type": "uint256"
        }
      ],
      "name": "getCandidate",
      "outputs": [
        {
          "internalType": "uint256",
          "name": "",
          "type": "uint256"
        },
        {
          "internalType": "string",
          "name": "",
          "type": "string"
        },
        {
          "internalType": "string",
          "name": "",
          "type": "string"
        },
        {
          "internalType": "uint256",
          "name": "",
          "type": "uint256"
        }
      ],
      "payable": false,
      "stateMutability": "view",
      "type": "function"
    },
    {
      "constant": false,
      "inputs": [
        {
          "internalType": "uint256",
          "name": "_startDate",
          "type": "uint256"
        },
        {
          "internalType": "uint256",
          "name": "_endDate",
          "type": "uint256"
        }
      ],
      "name": "setDates",
      "outputs": [],
      "payable": false,
      "stateMutability": "nonpayable",
      "type": "function"
    },
    {
      "constant": true,
      "inputs": [],
      "name": "getDates",
      "outputs": [
        {
          "internalType": "uint256",
          "name": "",
          "type": "uint256"
        },
        {
          "internalType": "uint256",
          "name": "",
          "type": "uint256"
        }
      ],
      "payable": false,
      "stateMutability": "view",
      "type": "function"
    }
  ],
  "bytecode": "0x608060405234801561001057600080fd5b50611072806100206000396000f3fe608060405234801561001057600080fd5b50600436106100ea5760003560e01c806335b8e8201161008c578063974b89d511610066578063974b89d51461063f578063a2d4463214610712578063b86eda91146107e5578063dedf141e14610803576100ea565b806335b8e820146104ba57806337f91f23146105db57806385a3863514610621576100ea565b806324108475116100c8578063241084751461015057806326541b56146102155780632d35a8a21461037b5780633477ee2e14610399576100ea565b80630a84a217146100ef578063101158af1461010d578063164418131461012b575b600080fd5b6100f761083b565b6040518082815260200191505060405180910390f35b610115610845565b6040518082815260200191505060405180910390f35b61013361084b565b604051808381526020018281526020019250505060405180910390f35b6102136004803603604081101561016657600080fd5b81019080803590602001909291908035906020019064010000000081111561018d57600080fd5b82018360208201111561019f57600080fd5b803590602001918460018302840111640100000000831117156101c157600080fd5b91908080601f016020809104026020016040519081016040528093929190818152602001838380828437600081840152601f19601f82011690508083019250505050505050919291929050505061085c565b005b6103656004803603604081101561022b57600080fd5b810190808035906020019064010000000081111561024857600080fd5b82018360208201111561025a57600080fd5b8035906020019184600183028401116401000000008311171561027c57600080fd5b91908080601f016020809104026020016040519081016040528093929190818152602001838380828437600081840152601f19601f820116905080830192505050505050509192919290803590602001906401000000008111156102df57600080fd5b8201836020820111156102f157600080fd5b8035906020019184600183028401116401000000008311171561031357600080fd5b91908080601f016020809104026020016040519081016040528093929190818152602001838380828437600081840152601f19601f820116905080830192505050505050509192919290505050610a41565b6040518082815260200191505060405180910390f35b610383610aea565b6040518082815260200191505060405180910390f35b6103c5600480360360208110156103af57600080fd5b8101908080359060200190929190505050610af0565b604051808581526020018060200180602001848152602001838103835286818151815260200191508051906020019080838360005b838110156104155780820151818401526020810190506103fa565b50505050905090810190601f1680156104425780820380516001836020036101000a031916815260200191505b50838103825285818151815260200191508051906020019080838360005b8381101561047b578082015181840152602081019050610460565b50505050905090810190601f1680156104a85780820380516001836020036101000a031916815260200191505b50965050505050505060405180910390f35b6104e6600480360360208110156104d057600080fd5b8101908080359060200190929190505050610c50565b604051808581526020018060200180602001848152602001838103835286818151815260200191508051906020019080838360005b8381101561053657808201518184015260208101905061051b565b50505050905090810190601f1680156105635780820380516001836020036101000a031916815260200191505b50838103825285818151815260200191508051906020019080838360005b8381101561059c578082015181840152602081019050610581565b50505050905090810190601f1680156105c95780820380516001836020036101000a031916815260200191505b50965050505050505060405180910390f35b610607600480360360208110156105f157600080fd5b8101908080359060200190929190505050610de2565b604051808215151515815260200191505060405180910390f35b610629610e02565b6040518082815260200191505060405180910390f35b6106f86004803603602081101561065557600080fd5b810190808035906020019064010000000081111561067257600080fd5b82018360208201111561068457600080fd5b803590602001918460018302840111640100000000831117156106a657600080fd5b91908080601f016020809104026020016040519081016040528093929190818152602001838380828437600081840152601f19601f820116905080830192505050505050509192919290505050610e08565b604051808215151515815260200191505060405180910390f35b6107cb6004803603602081101561072857600080fd5b810190808035906020019064010000000081111561074557600080fd5b82018360208201111561075757600080fd5b8035906020019184600183028401116401000000008311171561077957600080fd5b91908080601f016020809104026020016040519081016040528093929190818152602001838380828437600081840152601f19601f820116905080830192505050505050509192919290505050610ea8565b604051808215151515815260200191505060405180910390f35b6107ed610f48565b6040518082815260200191505060405180910390f35b6108396004803603604081101561081957600080fd5b810190808035906020019092919080359060200190929190505050610f4e565b005b6000600354905090565b60055481565b600080600554600454915091509091565b6000816040516020018082805190602001908083835b602083106108955780518252602082019150602081019050602083039250610872565b6001836020036101000a0380198251168184511680821785525050505050509050019150506040516020818303038152906040528051906020012090506002600082815260200190815260200160002060009054906101000a900460ff1615610966576040517f08c379a000000000000000000000000000000000000000000000000000000000815260040180806020018281038252601c8152602001807f5468697320757365722068617320616c726561647920766f7465642e0000000081525060200191505060405180910390fd5b60008311801561097857506000548311155b6109ea576040517f08c379a00000000000000000000000000000000000000000000000000000000081526004018080602001828103825260128152602001807f496e76616c69642063616e6469646174652e000000000000000000000000000081525060200191505060405180910390fd5b60016002600083815260200190815260200160002060006101000a81548160ff0219169083151502179055506001600084815260200190815260200160002060030160008154809291906001019190505550505050565b6000600360008154809291906001019190505550604051806080016040528060035481526020018481526020018381526020016000815250600160006003548152602001908152602001600020600082015181600001556020820151816001019080519060200190610ab4929190610f98565b506040820151816002019080519060200190610ad1929190610f98565b5060608201518160030155905050600354905092915050565b60005481565b6001602052806000526040600020600091509050806000015490806001018054600181600116156101000203166002900480601f016020809104026020016040519081016040528092919081815260200182805460018160011615610100020316600290048015610ba25780601f10610b7757610100808354040283529160200191610ba2565b820191906000526020600020905b815481529060010190602001808311610b8557829003601f168201915b505050505090806002018054600181600116156101000203166002900480601f016020809104026020016040519081016040528092919081815260200182805460018160011615610100020316600290048015610c405780601f10610c1557610100808354040283529160200191610c40565b820191906000526020600020905b815481529060010190602001808311610c2357829003601f168201915b5050505050908060030154905084565b600060608060008460016000878152602001908152602001600020600101600160008881526020019081526020016000206002016001600089815260200190815260200160002060030154828054600181600116156101000203166002900480601f016020809104026020016040519081016040528092919081815260200182805460018160011615610100020316600290048015610d305780601f10610d0557610100808354040283529160200191610d30565b820191906000526020600020905b815481529060010190602001808311610d1357829003601f168201915b50505050509250818054600181600116156101000203166002900480601f016020809104026020016040519081016040528092919081815260200182805460018160011615610100020316600290048015610dcc5780601f10610da157610100808354040283529160200191610dcc565b820191906000526020600020905b815481529060010190602001808311610daf57829003601f168201915b5050505050915093509350935093509193509193565b60026020528060005260406000206000915054906101000a900460ff1681565b60045481565b600080826040516020018082805190602001908083835b60208310610e425780518252602082019150602081019050602083039250610e1f565b6001836020036101000a0380198251168184511680821785525050505050509050019150506040516020818303038152906040528051906020012090506002600082815260200190815260200160002060009054906101000a900460ff16915050919050565b600080826040516020018082805190602001908083835b60208310610ee25780518252602082019150602081019050602083039250610ebf565b6001836020036101000a0380198251168184511680821785525050505050509050019150506040516020818303038152906040528051906020012090506002600082815260200190815260200160002060009054906101000a900460ff16915050919050565b60035481565b6000600454148015610f6257506000600554145b8015610f72575042620f42408301115b8015610f7d57508181115b610f8657600080fd5b80600481905550816005819055505050565b828054600181600116156101000203166002900490600052602060002090601f016020900481019282601f10610fd957805160ff1916838001178555611007565b82800160010185558215611007579182015b82811115611006578251825591602001919060010190610feb565b5b5090506110149190611018565b5090565b61103a91905b8082111561103657600081600090555060010161101e565b5090565b9056fea265627a7a7231582073e9f3bf158bd571473002e406d519212d8a3b309980abf6d2a02fc3aa5f7d0f64736f6c63430005100032",
  "source": "pragma solidity ^0.5.15;\r\n\r\ncontract Voting {\r\n    struct Candidate {\r\n        uint id;\r\n        string name;\r\n        string party; \r\n        uint voteCount;\r\n    }\r\n    // 1. Declare the identifier that was missing\r\n    uint public candidatesCount;\r\n\r\n    mapping (uint => Candidate) public candidates;\r\n    mapping (bytes32 => bool) public voters;\r\n\r\n    \r\n    uint public countCandidates;\r\n    uint256 public votingEnd;\r\n    uint256 public votingStart;\r\n\r\n\r\n    function addCandidate(string memory name, string memory party) public  returns(uint) {\r\n               countCandidates ++;\r\n               candidates[countCandidates] = Candidate(countCandidates, name, party, 0);\r\n               return countCandidates;\r\n    }\r\n   // In Voting.sol\r\n\r\n// Helper to check if a specific Supabase ID has voted\r\nfunction hasUserVoted(string memory _userId) public view returns (bool) {\r\n    bytes32 userHash = keccak256(abi.encodePacked(_userId));\r\n    return voters[userHash];\r\n}\r\n    // Update the vote function\r\n    function vote(uint _candidateId, string memory _userId) public {\r\n        bytes32 userHash = keccak256(abi.encodePacked(_userId));\r\n        require(!voters[userHash], \"This user has already voted.\");\r\n        \r\n        // 2. Now 'candidatesCount' is declared and can be used here\r\n        require(_candidateId > 0 && _candidateId <= candidatesCount, \"Invalid candidate.\");\r\n\r\n        voters[userHash] = true;\r\n        candidates[_candidateId].voteCount++;\r\n    }\r\n    \r\n    // Change the old function to accept the Supabase User ID\r\nfunction checkVote(string memory _userId) public view returns (bool) {\r\n    // Hash the ID to match our mapping key\r\n    bytes32 userHash = keccak256(abi.encodePacked(_userId));\r\n    return voters[userHash];\r\n}\r\n       \r\n    function getCountCandidates() public view returns(uint) {\r\n        return countCandidates;\r\n    }\r\n\r\n    function getCandidate(uint candidateID) public view returns (uint,string memory, string memory,uint) {\r\n        return (candidateID,candidates[candidateID].name,candidates[candidateID].party,candidates[candidateID].voteCount);\r\n    }\r\n\r\n    function setDates(uint256 _startDate, uint256 _endDate) public{\r\n        require((votingEnd == 0) && (votingStart == 0) && (_startDate + 1000000 > now) && (_endDate > _startDate));\r\n        votingEnd = _endDate;\r\n        votingStart = _startDate;\r\n    }\r\n\r\n    function getDates() public view returns (uint256,uint256) {\r\n      return (votingStart,votingEnd);\r\n    }\r\n}\r\n",
  "sourcePath": "C:\\Users\\ASUS\\OneDrive\\Desktop\\mini project\\next_dvoting\\contracts\\Voting.sol",
  "compiler": {
    "name": "solc",
    "version": "0.5.16+commit.9c3226ce.Emscripten.clang"
  },
  "schemaVersion": "3.4.16",
  "updatedAt": "2026-01-29T16:01:54.468Z",
  "networkType": "ethereum",
  "devdoc": {
    "methods": {}
  },
  "userdoc": {
    "methods": {}
  }
}