{
  "contractName": "Voting",
  "abi": [
    {
      "constant": true,
      "inputs": [
        {
          "internalType": "uint256",
          "name": "",
          "type": "uint256"
        }
      ],
      "name": "candidates",
      "outputs": [
        {
          "internalType": "uint256",
          "name": "id",
          "type": "uint256"
        },
        {
          "internalType": "string",
          "name": "name",
          "type": "string"
        },
        {
          "internalType": "string",
          "name": "party",
          "type": "string"
        },
        {
          "internalType": "uint256",
          "name": "voteCount",
          "type": "uint256"
        }
      ],
      "payable": false,
      "stateMutability": "view",
      "type": "function"
    },
    {
      "constant": true,
      "inputs": [],
      "name": "candidatesCount",
      "outputs": [
        {
          "internalType": "uint256",
          "name": "",
          "type": "uint256"
        }
      ],
      "payable": false,
      "stateMutability": "view",
      "type": "function"
    },
    {
      "constant": true,
      "inputs": [
        {
          "internalType": "bytes32",
          "name": "",
          "type": "bytes32"
        }
      ],
      "name": "voters",
      "outputs": [
        {
          "internalType": "bool",
          "name": "",
          "type": "bool"
        }
      ],
      "payable": false,
      "stateMutability": "view",
      "type": "function"
    },
    {
      "constant": true,
      "inputs": [],
      "name": "votingEnd",
      "outputs": [
        {
          "internalType": "uint256",
          "name": "",
          "type": "uint256"
        }
      ],
      "payable": false,
      "stateMutability": "view",
      "type": "function"
    },
    {
      "constant": true,
      "inputs": [],
      "name": "votingStart",
      "outputs": [
        {
          "internalType": "uint256",
          "name": "",
          "type": "uint256"
        }
      ],
      "payable": false,
      "stateMutability": "view",
      "type": "function"
    },
    {
      "constant": false,
      "inputs": [
        {
          "internalType": "string",
          "name": "name",
          "type": "string"
        },
        {
          "internalType": "string",
          "name": "party",
          "type": "string"
        }
      ],
      "name": "addCandidate",
      "outputs": [
        {
          "internalType": "uint256",
          "name": "",
          "type": "uint256"
        }
      ],
      "payable": false,
      "stateMutability": "nonpayable",
      "type": "function"
    },
    {
      "constant": false,
      "inputs": [
        {
          "internalType": "uint256",
          "name": "_candidateId",
          "type": "uint256"
        },
        {
          "internalType": "string",
          "name": "_userId",
          "type": "string"
        }
      ],
      "name": "vote",
      "outputs": [],
      "payable": false,
      "stateMutability": "nonpayable",
      "type": "function"
    },
    {
      "constant": true,
      "inputs": [
        {
          "internalType": "string",
          "name": "_userId",
          "type": "string"
        }
      ],
      "name": "checkVote",
      "outputs": [
        {
          "internalType": "bool",
          "name": "",
          "type": "bool"
        }
      ],
      "payable": false,
      "stateMutability": "view",
      "type": "function"
    },
    {
      "constant": true,
      "inputs": [],
      "name": "getCountCandidates",
      "outputs": [
        {
          "internalType": "uint256",
          "name": "",
          "type": "uint256"
        }
      ],
      "payable": false,
      "stateMutability": "view",
      "type": "function"
    },
    {
      "constant": true,
      "inputs": [
        {
          "internalType": "uint256",
          "name": "candidateID",
          "type": "uint256"
        }
      ],
      "name": "getCandidate",
      "outputs": [
        {
          "internalType": "uint256",
          "name": "",
          "type": "uint256"
        },
        {
          "internalType": "string",
          "name": "",
          "type": "string"
        },
        {
          "internalType": "string",
          "name": "",
          "type": "string"
        },
        {
          "internalType": "uint256",
          "name": "",
          "type": "uint256"
        }
      ],
      "payable": false,
      "stateMutability": "view",
      "type": "function"
    },
    {
      "constant": false,
      "inputs": [
        {
          "internalType": "uint256",
          "name": "_startDate",
          "type": "uint256"
        },
        {
          "internalType": "uint256",
          "name": "_endDate",
          "type": "uint256"
        }
      ],
      "name": "setDates",
      "outputs": [],
      "payable": false,
      "stateMutability": "nonpayable",
      "type": "function"
    },
    {
      "constant": true,
      "inputs": [],
      "name": "getDates",
      "outputs": [
        {
          "internalType": "uint256",
          "name": "",
          "type": "uint256"
        },
        {
          "internalType": "uint256",
          "name": "",
          "type": "uint256"
        }
      ],
      "payable": false,
      "stateMutability": "view",
      "type": "function"
    },
    {
      "constant": false,
      "inputs": [
        {
          "internalType": "uint256",
          "name": "_candidateId",
          "type": "uint256"
        }
      ],
      "name": "removeCandidate",
      "outputs": [],
      "payable": false,
      "stateMutability": "nonpayable",
      "type": "function"
    },
    {
      "constant": false,
      "inputs": [],
      "name": "resetElection",
      "outputs": [],
      "payable": false,
      "stateMutability": "nonpayable",
      "type": "function"
    }
  ],
  "bytecode": "0x608060405234801561001057600080fd5b5061107f806100206000396000f3fe608060405234801561001057600080fd5b50600436106100ea5760003560e01c80633477ee2e1161008c57806385a386351161006657806385a386351461064f578063974b89d51461066d578063dedf141e14610740578063e8f3052314610778576100ea565b80633477ee2e146103c757806335b8e820146104e857806337f91f2314610609576100ea565b806316441813116100c85780631644181314610159578063241084751461017e57806326541b56146102435780632d35a8a2146103a9576100ea565b806309e9d7e2146100ef5780630a84a2171461011d578063101158af1461013b575b600080fd5b61011b6004803603602081101561010557600080fd5b8101908080359060200190929190505050610782565b005b61012561084f565b6040518082815260200191505060405180910390f35b610143610858565b6040518082815260200191505060405180910390f35b61016161085e565b604051808381526020018281526020019250505060405180910390f35b6102416004803603604081101561019457600080fd5b8101908080359060200190929190803590602001906401000000008111156101bb57600080fd5b8201836020820111156101cd57600080fd5b803590602001918460018302840111640100000000831117156101ef57600080fd5b91908080601f016020809104026020016040519081016040528093929190818152602001838380828437600081840152601f19601f82011690508083019250505050505050919291929050505061086f565b005b6103936004803603604081101561025957600080fd5b810190808035906020019064010000000081111561027657600080fd5b82018360208201111561028857600080fd5b803590602001918460018302840111640100000000831117156102aa57600080fd5b91908080601f016020809104026020016040519081016040528093929190818152602001838380828437600081840152601f19601f8201169050808301925050505050505091929192908035906020019064010000000081111561030d57600080fd5b82018360208201111561031f57600080fd5b8035906020019184600183028401116401000000008311171561034157600080fd5b91908080601f016020809104026020016040519081016040528093929190818152602001838380828437600081840152601f19601f820116905080830192505050505050509192919290505050610a54565b6040518082815260200191505060405180910390f35b6103b1610afb565b6040518082815260200191505060405180910390f35b6103f3600480360360208110156103dd57600080fd5b8101908080359060200190929190505050610b01565b604051808581526020018060200180602001848152602001838103835286818151815260200191508051906020019080838360005b83811015610443578082015181840152602081019050610428565b50505050905090810190601f1680156104705780820380516001836020036101000a031916815260200191505b50838103825285818151815260200191508051906020019080838360005b838110156104a957808201518184015260208101905061048e565b50505050905090810190601f1680156104d65780820380516001836020036101000a031916815260200191505b50965050505050505060405180910390f35b610514600480360360208110156104fe57600080fd5b8101908080359060200190929190505050610c61565b604051808581526020018060200180602001848152602001838103835286818151815260200191508051906020019080838360005b83811015610564578082015181840152602081019050610549565b50505050905090810190601f1680156105915780820380516001836020036101000a031916815260200191505b50838103825285818151815260200191508051906020019080838360005b838110156105ca5780820151818401526020810190506105af565b50505050905090810190601f1680156105f75780820380516001836020036101000a031916815260200191505b50965050505050505060405180910390f35b6106356004803603602081101561061f57600080fd5b8101908080359060200190929190505050610df3565b604051808215151515815260200191505060405180910390f35b610657610e13565b6040518082815260200191505060405180910390f35b6107266004803603602081101561068357600080fd5b81019080803590602001906401000000008111156106a057600080fd5b8201836020820111156106b257600080fd5b803590602001918460018302840111640100000000831117156106d457600080fd5b91908080601f016020809104026020016040519081016040528093929190818152602001838380828437600081840152601f19601f820116905080830192505050505050509192919290505050610e19565b604051808215151515815260200191505060405180910390f35b6107766004803603604081101561075657600080fd5b810190808035906020019092919080359060200190929190505050610eb9565b005b610780610f23565b005b60008111801561079457506000548111155b610806576040517f08c379a000000000000000000000000000000000000000000000000000000000815260040180806020018281038252600a8152602001807f496e76616c69642049440000000000000000000000000000000000000000000081525060200191505060405180910390fd5b600160008281526020019081526020016000206000808201600090556001820160006108329190610f3c565b6002820160006108429190610f3c565b6003820160009055505050565b60008054905090565b60045481565b600080600454600354915091509091565b6000816040516020018082805190602001908083835b602083106108a85780518252602082019150602081019050602083039250610885565b6001836020036101000a0380198251168184511680821785525050505050509050019150506040516020818303038152906040528051906020012090506002600082815260200190815260200160002060009054906101000a900460ff1615610979576040517f08c379a000000000000000000000000000000000000000000000000000000000815260040180806020018281038252601c8152602001807f5468697320757365722068617320616c726561647920766f7465642e0000000081525060200191505060405180910390fd5b60008311801561098b57506000548311155b6109fd576040517f08c379a00000000000000000000000000000000000000000000000000000000081526004018080602001828103825260128152602001807f496e76616c69642063616e6469646174652e000000000000000000000000000081525060200191505060405180910390fd5b60016002600083815260200190815260200160002060006101000a81548160ff0219169083151502179055506001600084815260200190815260200160002060030160008154809291906001019190505550505050565b600080600081548092919060010191905055506040518060800160405280600054815260200184815260200183815260200160008152506001600080548152602001908152602001600020600082015181600001556020820151816001019080519060200190610ac5929190610f84565b506040820151816002019080519060200190610ae2929190610f84565b5060608201518160030155905050600054905092915050565b60005481565b6001602052806000526040600020600091509050806000015490806001018054600181600116156101000203166002900480601f016020809104026020016040519081016040528092919081815260200182805460018160011615610100020316600290048015610bb35780601f10610b8857610100808354040283529160200191610bb3565b820191906000526020600020905b815481529060010190602001808311610b9657829003601f168201915b505050505090806002018054600181600116156101000203166002900480601f016020809104026020016040519081016040528092919081815260200182805460018160011615610100020316600290048015610c515780601f10610c2657610100808354040283529160200191610c51565b820191906000526020600020905b815481529060010190602001808311610c3457829003601f168201915b5050505050908060030154905084565b600060608060008460016000878152602001908152602001600020600101600160008881526020019081526020016000206002016001600089815260200190815260200160002060030154828054600181600116156101000203166002900480601f016020809104026020016040519081016040528092919081815260200182805460018160011615610100020316600290048015610d415780601f10610d1657610100808354040283529160200191610d41565b820191906000526020600020905b815481529060010190602001808311610d2457829003601f168201915b50505050509250818054600181600116156101000203166002900480601f016020809104026020016040519081016040528092919081815260200182805460018160011615610100020316600290048015610ddd5780601f10610db257610100808354040283529160200191610ddd565b820191906000526020600020905b815481529060010190602001808311610dc057829003601f168201915b5050505050915093509350935093509193509193565b60026020528060005260406000206000915054906101000a900460ff1681565b60035481565b600080826040516020018082805190602001908083835b60208310610e535780518252602082019150602081019050602083039250610e30565b6001836020036101000a0380198251168184511680821785525050505050509050019150506040516020818303038152906040528051906020012090506002600082815260200190815260200160002060009054906101000a900460ff16915050919050565b818111610f11576040517f08c379a000000000000000000000000000000000000000000000000000000000815260040180806020018281038252602181526020018061102a6021913960400191505060405180910390fd5b80600381905550816004819055505050565b6000808190555060006004819055506000600381905550565b50805460018160011615610100020316600290046000825580601f10610f625750610f81565b601f016020900490600052602060002090810190610f809190611004565b5b50565b828054600181600116156101000203166002900490600052602060002090601f016020900481019282601f10610fc557805160ff1916838001178555610ff3565b82800160010185558215610ff3579182015b82811115610ff2578251825591602001919060010190610fd7565b5b5090506110009190611004565b5090565b61102691905b8082111561102257600081600090555060010161100a565b5090565b9056fe456e642064617465206d7573742062652061667465722073746172742064617465a265627a7a72315820b14563d0b15d71a0b44a6c11fca4049e34a144755dc3a739a0de92364bdd53fa64736f6c63430005100032",
  "source": "pragma solidity ^0.5.15;\r\n\r\ncontract Voting {\r\n    struct Candidate {\r\n        uint id;\r\n        string name;\r\n        string party; \r\n        uint voteCount;\r\n    }\r\n\r\n    // FIX: Use ONLY this variable for the count\r\n    uint public candidatesCount;\r\n\r\n    mapping (uint => Candidate) public candidates;\r\n    mapping (bytes32 => bool) public voters;\r\n\r\n    uint256 public votingEnd;\r\n    uint256 public votingStart;\r\n\r\n    function addCandidate(string memory name, string memory party) public returns(uint) {\r\n        // FIX: Increment the same variable used by the frontend\r\n        candidatesCount++;\r\n        candidates[candidatesCount] = Candidate(candidatesCount, name, party, 0);\r\n        return candidatesCount;\r\n    }\r\n\r\n    function vote(uint _candidateId, string memory _userId) public {\r\n        bytes32 userHash = keccak256(abi.encodePacked(_userId));\r\n        require(!voters[userHash], \"This user has already voted.\");\r\n        \r\n        // FIX: Now this check works because candidatesCount is being incremented\r\n        require(_candidateId > 0 && _candidateId <= candidatesCount, \"Invalid candidate.\");\r\n\r\n        voters[userHash] = true;\r\n        candidates[_candidateId].voteCount++;\r\n    }\r\n    \r\n    function checkVote(string memory _userId) public view returns (bool) {\r\n        bytes32 userHash = keccak256(abi.encodePacked(_userId));\r\n        return voters[userHash];\r\n    }\r\n        \r\n    // Standard getter for the count\r\n    function getCountCandidates() public view returns(uint) {\r\n        return candidatesCount;\r\n    }\r\n\r\n    function getCandidate(uint candidateID) public view returns (uint, string memory, string memory, uint) {\r\n        return (candidateID, candidates[candidateID].name, candidates[candidateID].party, candidates[candidateID].voteCount);\r\n    }\r\n\r\n    function setDates(uint256 _startDate, uint256 _endDate) public {\r\n        // Simplified requirement for testing\r\n        require(_endDate > _startDate, \"End date must be after start date\");\r\n        votingEnd = _endDate;\r\n        votingStart = _startDate;\r\n    }\r\n\r\n    function getDates() public view returns (uint256, uint256) {\r\n      return (votingStart, votingEnd);\r\n    }\r\n\r\n    // Add these to Voting.sol\r\n\r\nfunction removeCandidate(uint _candidateId) public {\r\n    require(_candidateId > 0 && _candidateId <= candidatesCount, \"Invalid ID\");\r\n    delete candidates[_candidateId];\r\n}\r\n\r\nfunction resetElection() public {\r\n    // Reset candidates count\r\n    candidatesCount = 0;\r\n    // Reset dates\r\n    votingStart = 0;\r\n    votingEnd = 0;\r\n    // Note: To reset the 'voters' mapping, you'd usually deploy a new contract\r\n    // or use a versioning system, as mapping keys cannot be iterated and cleared.\r\n}\r\n}\r\n",
  "sourcePath": "C:\\Users\\ASUS\\OneDrive\\Desktop\\mini project\\next_dvoting\\contracts\\Voting.sol",
  "compiler": {
    "name": "solc",
    "version": "0.5.16+commit.9c3226ce.Emscripten.clang"
  },
  "schemaVersion": "3.4.16",
  "updatedAt": "2026-01-31T05:59:35.387Z",
  "networkType": "ethereum",
  "devdoc": {
    "methods": {}
  },
  "userdoc": {
    "methods": {}
  }
}